{
  "contractName": "Greeter",
  "abi": [
    {
      "inputs": [
        {
          "internalType": "string",
          "name": "_greeting",
          "type": "string"
        }
      ],
      "stateMutability": "nonpayable",
      "type": "constructor"
    },
    {
      "inputs": [],
      "name": "greet",
      "outputs": [
        {
          "internalType": "string",
          "name": "",
          "type": "string"
        }
      ],
      "stateMutability": "view",
      "type": "function"
    },
    {
      "inputs": [
        {
          "internalType": "string",
          "name": "_greeting",
          "type": "string"
        }
      ],
      "name": "setGreeting",
      "outputs": [],
      "stateMutability": "nonpayable",
      "type": "function"
    },
    {
      "inputs": [],
      "name": "deposit",
      "outputs": [],
      "stateMutability": "payable",
      "type": "function"
    }
  ],
  "bytecode": "0x608060405234801561001057600080fd5b506040516107503803806107508339818101604052810190610032919061015a565b806000908051906020019061004892919061004f565b50506102bf565b82805461005b9061022f565b90600052602060002090601f01602090048101928261007d57600085556100c4565b82601f1061009657805160ff19168380011785556100c4565b828001600101855582156100c4579182015b828111156100c35782518255916020019190600101906100a8565b5b5090506100d191906100d5565b5090565b5b808211156100ee5760008160009055506001016100d6565b5090565b6000610105610100846101cc565b61019b565b90508281526020810184848401111561011d57600080fd5b6101288482856101fc565b509392505050565b600082601f83011261014157600080fd5b81516101518482602086016100f2565b91505092915050565b60006020828403121561016c57600080fd5b600082015167ffffffffffffffff81111561018657600080fd5b61019284828501610130565b91505092915050565b6000604051905081810181811067ffffffffffffffff821117156101c2576101c1610290565b5b8060405250919050565b600067ffffffffffffffff8211156101e7576101e6610290565b5b601f19601f8301169050602081019050919050565b60005b8381101561021a5780820151818401526020810190506101ff565b83811115610229576000848401525b50505050565b6000600282049050600182168061024757607f821691505b6020821081141561025b5761025a610261565b5b50919050565b7f4e487b7100000000000000000000000000000000000000000000000000000000600052602260045260246000fd5b7f4e487b7100000000000000000000000000000000000000000000000000000000600052604160045260246000fd5b610482806102ce6000396000f3fe6080604052600436106100345760003560e01c8063a413686214610039578063cfae321714610062578063d0e30db01461008d575b600080fd5b34801561004557600080fd5b50610060600480360381019061005b9190610250565b610097565b005b34801561006e57600080fd5b506100776100b1565b60405161008491906102ca565b60405180910390f35b610095610143565b005b80600090805190602001906100ad929190610145565b5050565b6060600080546100c0906103ab565b80601f01602080910402602001604051908101604052809291908181526020018280546100ec906103ab565b80156101395780601f1061010e57610100808354040283529160200191610139565b820191906000526020600020905b81548152906001019060200180831161011c57829003601f168201915b5050505050905090565b565b828054610151906103ab565b90600052602060002090601f01602090048101928261017357600085556101ba565b82601f1061018c57805160ff19168380011785556101ba565b828001600101855582156101ba579182015b828111156101b957825182559160200191906001019061019e565b5b5090506101c791906101cb565b5090565b5b808211156101e45760008160009055506001016101cc565b5090565b60006101fb6101f68461031d565b6102ec565b90508281526020810184848401111561021357600080fd5b61021e848285610369565b509392505050565b600082601f83011261023757600080fd5b81356102478482602086016101e8565b91505092915050565b60006020828403121561026257600080fd5b600082013567ffffffffffffffff81111561027c57600080fd5b61028884828501610226565b91505092915050565b600061029c8261034d565b6102a68185610358565b93506102b6818560208601610378565b6102bf8161043b565b840191505092915050565b600060208201905081810360008301526102e48184610291565b905092915050565b6000604051905081810181811067ffffffffffffffff821117156103135761031261040c565b5b8060405250919050565b600067ffffffffffffffff8211156103385761033761040c565b5b601f19601f8301169050602081019050919050565b600081519050919050565b600082825260208201905092915050565b82818337600083830152505050565b60005b8381101561039657808201518184015260208101905061037b565b838111156103a5576000848401525b50505050565b600060028204905060018216806103c357607f821691505b602082108114156103d7576103d66103dd565b5b50919050565b7f4e487b7100000000000000000000000000000000000000000000000000000000600052602260045260246000fd5b7f4e487b7100000000000000000000000000000000000000000000000000000000600052604160045260246000fd5b6000601f19601f830116905091905056fea2646970667358221220b66dae25cc8dc9165d12570c641efadb1a20bf86e0c0b4eb9b8df20be01d27bc64736f6c63430008000033",
  "immutableReferences": {},
  "source": "pragma solidity ^0.8.0;\r\ncontract Greeter{\r\n    string private greeting;\r\n    constructor(string memory _greeting){\r\n        greeting=_greeting;\r\n    }\r\n\r\n    function greet() public view returns (string memory){\r\n        return greeting;\r\n    }\r\n\r\n    function setGreeting(string memory _greeting) public{\r\n        greeting=_greeting;\r\n    }\r\n\r\n    function deposit() payable public{}\r\n}",
  "sourcePath": "C:\\TaiLieu\\project-ecommerce\\ecommerce-mern-stack\\backend\\contracts\\Greeter.sol",
  "compiler": {
    "name": "solc",
    "version": "0.8.0+commit.c7dfd78e.Emscripten.clang"
  },
  "schemaVersion": "3.4.4",
  "updatedAt": "2022-07-03T04:09:02.231Z",
  "devdoc": {
    "kind": "dev",
    "methods": {},
    "version": 1
  },
  "userdoc": {
    "kind": "user",
    "methods": {},
    "version": 1
  }
}